:040000000C94380024
:100004000C9400000C9400000C9400000C9400006C
:100014000C9400000C9400000C94B8000C940000A4
:100024000C9400000C9497000C9400000C940000B5
:100034000C9400000C9400000C9400000C9400003C
:100044000C9400000C9400000C9400000C9400002C
:100054003A1700003F065B4F666D7D077F6F040013
:10006400040054000A00600258000000F894EE27CF
:10007400ECBBF1E0FBBFEBBFE5BF8DE0A2E0BB272B
:10008400ED938A95E9F780E098E0A0E6ED93019777
:10009400E9F7E2E6F0E085919591009761F0A5918A
:1000A400B59105901590BF01F00105900D9201974F
:1000B400E1F7FB01F0CFEFE5EDBFE8E0EEBFC0E60E
:1000C400D2E00C94CE001A9310E0143660F5A52DFE
:1000D4009BD0EEEFA3D0A52DA9D0EDEF9FD0A42DFA
:1000E40093D0EBEF9BD0A42DA1D0E7EF97D0A72D11
:1000F400B0E0EAE0F0E00E943901E05AFD4FE0810F
:10010400E829E5BBEFEE8AD0A72DBB27EAE0F0E0B3
:100114000E943E01E05AFD4FE081E829E5BBEFED86
:100124007DD01F5FD2CF199108950A921A929A93A3
:10013400AA93BA93EA93FA93EFB7EA93A72DBB274E
:10014400E2E0F0E00E943E01309721F4E0E8F0E0C4
:100154004F0102C088249924E991EFBFF991E991F4
:10016400B991A9919991199009901895EA93EFB7CB
:10017400EA937394ECE3E71511F477244394ECE3E6
:10018400E41511F444245394E7E1E51508F45524E7
:10019400E991EFBFE9911895E0E0EABBEBBBEFEF23
:1001A400E7BBE0E0E8BBEFEFE4BBE0E0E5BBEFEF8B
:1001B400E1BBE2BBECE0E3BFE0E0E2BFEAEFECBFAF
:1001C400E0E0EFBDECE0EEBDE0E0EDBDECBDE7BD91
:1001D400E6BDE2E1EBBDEFEFEABDE0E0E9BDE8BD7D
:1001E400E2BDE5BDE4BDE3BDE2E1E9BF7894E091A1
:1001F4006202E5BBEEEFE2BBE0916302E5BBEDEF2B
:10020400E2BB61DFF4CFFFCFB0E0EAE0F0E00E94B0
:100214003901E05AFD4FE081E5BB0895E2BB88EC6B
:1002240090E00197F1F7EFEFE2BB0895BB27EAE016
:10023400F0E00E943E01E05AFD4FE081E5BB0895E5
:10024400F195E195F04008950024112490E1AA0F5E
:10025400BB1F001C111C0E1A1F0A18F40E0E1F1EC1
:1002640001C0A1609A9599F7FD01D001089512D0BB
:10027400EBDF0EF4E5DF0895E894B7FF04C0A09522
:10028400B09511966894F7FDDBDFDEDFFD010EF417
:10029400D7DF0895E894F7FF02C0D2DF6894B7FF70
:1002A40006C0A095B095119600F8039400FA08953D
:00000001FF
